:100000000C9462000C948A000C948A000C948A0070
:100010000C948A000C948A000C948A000C948A0038
:100020000C948A000C948A000C948A000C948A0028
:100030000C948A000C948A000C948A000C948A0018
:100040000C9457020C948A000C94C7020C94A102E1
:100050000C948A000C948A000C948A000C948A00F8
:100060000C948A000C948A000000000023002600F3
:10007000290000000000240027002A0000000000E2
:10008000250028002B0004040404040404040202D4
:100090000202020203030303030301020408102007
:1000A0004080010204081020010204081020000012
:1000B0000008000201000003040700000000000027
:1000C0000000E80311241FBECFEFD8E0DEBFCDBF94
:1000D00011E0A0E0B1E0E4E4F8E002C005900D9288
:1000E000A632B107D9F721E0A6E2B1E001C01D9226
:1000F000AC3CB207E1F710E0C2E6D0E004C02197C3
:10010000FE010E941504C136D107C9F70E94F90209
:100110000C9420040C940000833081F028F481308A
:1001200099F08230A1F008958730A9F08830B9F0B5
:100130008430D1F4809180008F7D03C08091800055
:100140008F7780938000089584B58F7702C084B53F
:100150008F7D84BD08958091B0008F7703C080911A
:10016000B0008F7D8093B00008951F93CF93DF93ED
:10017000282F30E0F901E255FF4F8491F901E6564E
:10018000FF4FD491F901EA57FF4FC491CC23C1F03E
:10019000162F81110E948C00EC2FF0E0EE0FFF1F54
:1001A000E458FF4FA591B4919FB7F894111104C082
:1001B0008C91D095D82302C0EC91DE2BDC939FBFAD
:1001C000DF91CF911F910895CF93DF9390E0FC01D1
:1001D000E656FF4F2491FC01EA57FF4F8491882394
:1001E00061F190E0880F991FFC01EE58FF4FC59117
:1001F000D491FC01E458FF4FA591B491611109C05D
:100200009FB7F8948881209582238883EC912E23D0
:100210000BC0623061F49FB7F8948881322F30951B
:1002200083238883EC912E2B2C939FBF06C08FB71E
:10023000F894E8812E2B28838FBFDF91CF9108950A
:100240003FB7F8948091C8019091C901A091CA016B
:10025000B091CB0126B5A89B05C02F3F19F00196A0
:10026000A11DB11D3FBFBA2FA92F982F8827820F3C
:10027000911DA11DB11DBC01CD0142E0660F771F8C
:10028000881F991F4A95D1F70895CF92DF92EF9278
:10029000FF920F931F93CF93DF936C017A018B0131
:1002A000C0E0D0E0CE15DF0581F0D8016D918D0161
:1002B000D601ED91FC910190F081E02DC6010995E8
:1002C000892B11F02196EECF7E01C701DF91CF91EE
:1002D0001F910F91FF90EF90DF90CF9008950895B8
:1002E00080E090E00895FC01538D448D252F30E08F
:1002F000842F90E0821B930B541710F0CF96089533
:1003000001970895FC01918D828D981761F0828D7F
:10031000DF01A80FB11D5D968C91928D9F5F9F7339
:10032000928F90E008958FEF9FEF0895FC01918DDB
:10033000828D981731F0828DE80FF11D858D90E048
:1003400008958FEF9FEF0895FC01918D228D892FE5
:1003500090E0805C9F4F821B91098F7399270895CD
:1003600086E291E00E94A40121E0892B09F420E0BB
:10037000822F0895FC01848DDF01A80FB11DA35ABF
:10038000BF4F2C91848D90E001968F739927848FB5
:10039000A689B7892C93A089B1898C9183708064D8
:1003A0008C93938D848D981306C00288F389E02D79
:1003B00080818F7D80830895EF92FF920F931F932A
:1003C000CF93DF93EC0181E0888F9B8D8C8D981308
:1003D00005C0E889F989808185FD26C0F62E0B8D40
:1003E00010E00F5F1F4F0F731127E02E8C8DE81266
:1003F0000CC00FB607FCFACFE889F989808185FF28
:10040000F5CFCE010E94BA01F1CF8B8DFE01E80F2E
:10041000F11DE35AFF4FF0829FB7F8940B8FEA89E2
:10042000FB89808180620AC09FB7F894EE89FF89BA
:100430006083E889F98980818370806480839FBFAD
:1004400081E090E0DF91CF911F910F91FF90EF90AD
:100450000895CF93DF93EC01888D8823C9F0EA8952
:10046000FB89808185FD05C0A889B9898C9186FDAD
:100470000FC00FB607FCF5CF808185FFF2CFA889AA
:10048000B9898C9185FFEDCFCE010E94BA01E7CFEB
:10049000DF91CF91089580E090E0892B29F00E94B0
:1004A000B00181110C94000008950E941B041F925A
:1004B0000F920FB60F9211242F933F938F939F9318
:1004C000AF93BF938091C4019091C501A091C601E3
:1004D000B091C7013091C30123E0230F2D3720F4E1
:1004E0000196A11DB11D05C026E8230F0296A11D8E
:1004F000B11D2093C3018093C4019093C501A093C3
:10050000C601B093C7018091C8019091C901A09123
:10051000CA01B091CB010196A11DB11D8093C80104
:100520009093C901A093CA01B093CB01BF91AF9141
:100530009F918F913F912F910F900FBE0F901F9021
:1005400018951F920F920FB60F9211242F933F937D
:100550004F935F936F937F938F939F93AF93BF93CB
:10056000EF93FF9386E291E00E94BA01FF91EF9131
:10057000BF91AF919F918F917F916F915F914F91BB
:100580003F912F910F900FBE0F901F9018951F92C3
:100590000F920FB60F9211242F938F939F93EF9387
:1005A000FF93E0913601F09137018081E0913C01A9
:1005B000F0913D0182FD12C0908180913F018F5FDB
:1005C0008F7320914001821751F0E0913F01F0E0DC
:1005D000EA5DFE4F958F80933F0101C08081FF91BE
:1005E000EF919F918F912F910F900FBE0F901F90C1
:1005F0001895789484B5826084BD84B5816084BD8B
:1006000085B5826085BD85B5816085BD80916E00B0
:10061000816080936E0010928100809181008260E1
:10062000809381008091810081608093810080911E
:1006300080008160809380008091B100846080930D
:10064000B1008091B00081608093B00080917A0009
:10065000846080937A0080917A00826080937A002F
:1006600080917A00816080937A0080917A0080681E
:1006700080937A001092C10060E087E00E94E4005D
:1006800061E088E00E94E40061E089E00E94E4000B
:10069000E0913601F091370182E08083E0913201F0
:1006A000F09133011082E0913401F09135018FEC2B
:1006B000808310923E01E0913A01F0913B0186E087
:1006C0008083E0913801F0913901808180618083DD
:1006D000E0913801F0913901808188608083E09158
:1006E0003801F0913901808180688083E091380180
:1006F000F091390180818F7D8083C5EBD0E001EAE4
:1007000010E02DE8E22E20E0F22EFE018491F801A7
:10071000B490F701D490DD2009F44FC081110E94FC
:100720008C00ED2DF0E0EE0FFF1FE859FF4FA59173
:10073000B4918C918B2109F440C061E088E00E9463
:10074000B50061E089E00E94B50040E150E062E15F
:1007500071E086E291E00E94450142E050E063E2F0
:1007600071E086E291E00E9445010E9420012B0188
:100770003C0184EF882E99249394A12CB12C0E94E3
:100780002001DC01CB0184199509A609B709883E2F
:100790009340A105B10598F3F1E08F1A9108A108E3
:1007A000B10828EE420E23E0521E611C711C811418
:1007B0009104A104B10419F708C060E088E00E9428
:1007C000B50060E089E00E94B5000E944B029DCF19
:1007D000E6E2F1E01382128288EE93E0A0E0B0E05E
:1007E00084839583A683B78384E091E0918380839B
:1007F00085EC90E09587848784EC90E097878687E6
:1008000080EC90E0918B808B81EC90E0938B828BDD
:1008100082EC90E0958B848B86EC90E0978B868BB6
:10082000118E128E138E148E0895EE0FFF1F0590F9
:10083000F491E02D099481E090E0F8940C94200468
:04084000F894FFCF5A
:1008440000000000DC01450173012902A4018201BA
:1008540096014D6F74696F6E2044657465637465A9
:060864006421000D0A00F2
:00000001FF
